:020000020000FC
:0200000027C017
:10001400002702BFAA23C9F07A9461F4782C6150B6
:1000240008F46FE1FAE0E0E0E60DE60F5490232DCA
:10003400250D2BBD9394941440F09924AC1709F426
:10004400CC273991A13009F091D0189500E007BB75
:1000540004E008BB00E002BF05E003BF08E009BDFF
:1000640000E109BF06E007BD01E600BF00E60CBDE4
:1000740040E04EBD00E84BBD0FEF0DBDB1E0A0E088
:10008400D1E0C0E044276627219749930DE2402E32
:1000940000E0602E302E0FE7502EE02E04E0802E7C
:1000A40078944BD0403949F0403889F0403B01F115
:1000B400403E59F1403D89F1F3CF27FD3ED0322F28
:1000C4003CD0203041F0ED013D9350D0E9CF27FDE5
:1000D40034D0322F32D0ED010A913017E9F709817B
:1000E4000993CA17E1F7119721973A913FD0D8CFD6
:1000F40027FD23D0322F21D03730A9F0313079F0C9
:100104003530A1F03134B9F0CBCF27FD16D015D05E
:100114002054322E250D2BBDC3CF27FD0ED0220F28
:10012400207E622EBDCF2D5F422EBACF229527703E
:100134002395822EB5CFE22EB3CFB299FECFF89499
:1001440000E200000A95E9F718E020E00EE3889445
:100154000A95E9F700000000B299089427951A95CA
:10016400A9F7B29BFECF27FD422F08953D3070F0D2
:100174003052330F330F0EB5031739F00BE107BBC1
:10018400E6FCC09AC39A3EBDC098089500270EBDF0
:0A019400C398C09800E007BB08956F
:100A00007F7F7F7F7F7F7F7F7F7F7F7F7F7F7F7FF6
:100A10007F7F7F7F7F7F7F7F7F7F7F7F7F7F7F7FE6
:100A20007F7F7F80808080808080808080807F7FCB
:100A30007F7F7F7E7E7E7E7E7E7E7E7E7E7E7F7FD1
:100A40007F7F808080818181818181818080807FA2
:100A50007F7F7E7E7E7D7D7D7D7D7D7D7E7E7E7FBA
:100A60007F80808181818282828282818181808077
:100A70007F7E7E7D7D7D7C7C7C7C7C7D7D7D7E7EA5
:100A80007F8081818282838383838382828181804C
:100A90007F7E7D7D7C7C7B7B7B7B7B7C7C7D7D7E90
:100AA0007F80818283838484848484838382818021
:100AB0007F7E7D7C7B7B7A7A7A7A7A7B7B7C7D7E7B
:100AC0007F808182838485858585858483828180FA
:100AD0007F7E7D7C7B7A79797979797A7B7C7D7E62
:100AE0007F808283848585868686858584838280CF
:100AF0007F7E7C7B7A797978787879797A7B7C7E4D
:00000001FF
